{
  "_format": "hh-sol-artifact-1",
  "contractName": "VideoCallEscrow",
  "sourceName": "src/contracts/VideoCallEscrow.sol",
  "abi": [
    {
      "inputs": [],
      "stateMutability": "nonpayable",
      "type": "constructor"
    },
    {
      "inputs": [
        {
          "internalType": "bytes32",
          "name": "callId",
          "type": "bytes32"
        }
      ],
      "name": "CallAlreadyCompleted",
      "type": "error"
    },
    {
      "inputs": [
        {
          "internalType": "bytes32",
          "name": "callId",
          "type": "bytes32"
        }
      ],
      "name": "CallAlreadyExists",
      "type": "error"
    },
    {
      "inputs": [
        {
          "internalType": "bytes32",
          "name": "callId",
          "type": "bytes32"
        }
      ],
      "name": "CallAlreadyStarted",
      "type": "error"
    },
    {
      "inputs": [
        {
          "internalType": "bytes32",
          "name": "callId",
          "type": "bytes32"
        }
      ],
      "name": "CallNotFound",
      "type": "error"
    },
    {
      "inputs": [
        {
          "internalType": "uint256",
          "name": "currentTime",
          "type": "uint256"
        },
        {
          "internalType": "uint256",
          "name": "requiredTime",
          "type": "uint256"
        }
      ],
      "name": "DurationNotMet",
      "type": "error"
    },
    {
      "inputs": [
        {
          "internalType": "uint256",
          "name": "amount",
          "type": "uint256"
        }
      ],
      "name": "InvalidAmount",
      "type": "error"
    },
    {
      "inputs": [
        {
          "internalType": "address",
          "name": "developer",
          "type": "address"
        }
      ],
      "name": "InvalidDeveloper",
      "type": "error"
    },
    {
      "inputs": [
        {
          "internalType": "uint256",
          "name": "duration",
          "type": "uint256"
        }
      ],
      "name": "InvalidDuration",
      "type": "error"
    },
    {
      "inputs": [
        {
          "internalType": "address",
          "name": "developer",
          "type": "address"
        },
        {
          "internalType": "uint256",
          "name": "amount",
          "type": "uint256"
        }
      ],
      "name": "PaymentFailed",
      "type": "error"
    },
    {
      "inputs": [
        {
          "internalType": "address",
          "name": "sender",
          "type": "address"
        }
      ],
      "name": "SelfBookingNotAllowed",
      "type": "error"
    },
    {
      "inputs": [
        {
          "internalType": "address",
          "name": "sender",
          "type": "address"
        },
        {
          "internalType": "address",
          "name": "expected",
          "type": "address"
        }
      ],
      "name": "Unauthorized",
      "type": "error"
    },
    {
      "anonymous": false,
      "inputs": [
        {
          "indexed": true,
          "internalType": "bytes32",
          "name": "callId",
          "type": "bytes32"
        },
        {
          "indexed": false,
          "internalType": "uint256",
          "name": "endTime",
          "type": "uint256"
        }
      ],
      "name": "CallCompleted",
      "type": "event"
    },
    {
      "anonymous": false,
      "inputs": [
        {
          "indexed": true,
          "internalType": "bytes32",
          "name": "callId",
          "type": "bytes32"
        },
        {
          "indexed": true,
          "internalType": "address",
          "name": "client",
          "type": "address"
        },
        {
          "indexed": true,
          "internalType": "address",
          "name": "developer",
          "type": "address"
        },
        {
          "indexed": false,
          "internalType": "uint256",
          "name": "amount",
          "type": "uint256"
        },
        {
          "indexed": false,
          "internalType": "uint256",
          "name": "duration",
          "type": "uint256"
        },
        {
          "indexed": false,
          "internalType": "uint256",
          "name": "timestamp",
          "type": "uint256"
        }
      ],
      "name": "CallCreated",
      "type": "event"
    },
    {
      "anonymous": false,
      "inputs": [
        {
          "indexed": true,
          "internalType": "bytes32",
          "name": "callId",
          "type": "bytes32"
        },
        {
          "indexed": false,
          "internalType": "uint256",
          "name": "startTime",
          "type": "uint256"
        }
      ],
      "name": "CallStarted",
      "type": "event"
    },
    {
      "anonymous": false,
      "inputs": [
        {
          "indexed": false,
          "internalType": "string",
          "name": "message",
          "type": "string"
        },
        {
          "indexed": false,
          "internalType": "bytes32",
          "name": "callId",
          "type": "bytes32"
        }
      ],
      "name": "Debug",
      "type": "event"
    },
    {
      "anonymous": false,
      "inputs": [
        {
          "indexed": true,
          "internalType": "bytes32",
          "name": "callId",
          "type": "bytes32"
        },
        {
          "indexed": false,
          "internalType": "address",
          "name": "developer",
          "type": "address"
        },
        {
          "indexed": false,
          "internalType": "uint256",
          "name": "amount",
          "type": "uint256"
        }
      ],
      "name": "PaymentReleased",
      "type": "event"
    },
    {
      "inputs": [
        {
          "internalType": "bytes32",
          "name": "",
          "type": "bytes32"
        }
      ],
      "name": "calls",
      "outputs": [
        {
          "internalType": "address",
          "name": "client",
          "type": "address"
        },
        {
          "internalType": "address",
          "name": "developer",
          "type": "address"
        },
        {
          "internalType": "uint256",
          "name": "amount",
          "type": "uint256"
        },
        {
          "internalType": "uint256",
          "name": "duration",
          "type": "uint256"
        },
        {
          "internalType": "uint256",
          "name": "startTime",
          "type": "uint256"
        },
        {
          "internalType": "bool",
          "name": "isActive",
          "type": "bool"
        },
        {
          "internalType": "bool",
          "name": "isCompleted",
          "type": "bool"
        },
        {
          "internalType": "bool",
          "name": "isPaid",
          "type": "bool"
        }
      ],
      "stateMutability": "view",
      "type": "function"
    },
    {
      "inputs": [
        {
          "internalType": "bytes32",
          "name": "callId",
          "type": "bytes32"
        }
      ],
      "name": "completeCall",
      "outputs": [],
      "stateMutability": "nonpayable",
      "type": "function"
    },
    {
      "inputs": [
        {
          "internalType": "bytes32",
          "name": "callId",
          "type": "bytes32"
        },
        {
          "internalType": "address",
          "name": "developer",
          "type": "address"
        },
        {
          "internalType": "uint256",
          "name": "duration",
          "type": "uint256"
        }
      ],
      "name": "createCall",
      "outputs": [],
      "stateMutability": "payable",
      "type": "function"
    },
    {
      "inputs": [
        {
          "internalType": "bytes32",
          "name": "callId",
          "type": "bytes32"
        }
      ],
      "name": "doesCallExist",
      "outputs": [
        {
          "internalType": "bool",
          "name": "",
          "type": "bool"
        }
      ],
      "stateMutability": "view",
      "type": "function"
    },
    {
      "inputs": [
        {
          "internalType": "bytes32",
          "name": "callId",
          "type": "bytes32"
        }
      ],
      "name": "getCallDetails",
      "outputs": [
        {
          "internalType": "address",
          "name": "client",
          "type": "address"
        },
        {
          "internalType": "address",
          "name": "developer",
          "type": "address"
        },
        {
          "internalType": "uint256",
          "name": "amount",
          "type": "uint256"
        },
        {
          "internalType": "uint256",
          "name": "duration",
          "type": "uint256"
        },
        {
          "internalType": "uint256",
          "name": "startTime",
          "type": "uint256"
        },
        {
          "internalType": "bool",
          "name": "isActive",
          "type": "bool"
        },
        {
          "internalType": "bool",
          "name": "isCompleted",
          "type": "bool"
        },
        {
          "internalType": "bool",
          "name": "isPaid",
          "type": "bool"
        }
      ],
      "stateMutability": "view",
      "type": "function"
    },
    {
      "inputs": [],
      "name": "owner",
      "outputs": [
        {
          "internalType": "address",
          "name": "",
          "type": "address"
        }
      ],
      "stateMutability": "view",
      "type": "function"
    },
    {
      "inputs": [
        {
          "internalType": "bytes32",
          "name": "callId",
          "type": "bytes32"
        }
      ],
      "name": "startCall",
      "outputs": [],
      "stateMutability": "nonpayable",
      "type": "function"
    }
  ],
  "bytecode": "0x6080604052348015600f57600080fd5b5033600160006101000a81548173ffffffffffffffffffffffffffffffffffffffff021916908373ffffffffffffffffffffffffffffffffffffffff160217905550611443806100606000396000f3fe6080604052600436106100705760003560e01c80638da5cb5b1161004e5780638da5cb5b14610112578063cff102651461013d578063e582857e14610181578063f2498398146101aa57610070565b806319714806146100755780632069eef7146100b95780633098e671146100f6575b600080fd5b34801561008157600080fd5b5061009c60048036038101906100979190610ee2565b6101d3565b6040516100b0989796959493929190610f84565b60405180910390f35b3480156100c557600080fd5b506100e060048036038101906100db9190610ee2565b610335565b6040516100ed9190611002565b60405180910390f35b610110600480360381019061010b9190611075565b6103a3565b005b34801561011e57600080fd5b506101276107eb565b60405161013491906110c8565b60405180910390f35b34801561014957600080fd5b50610164600480360381019061015f9190610ee2565b610811565b604051610178989796959493929190610f84565b60405180910390f35b34801561018d57600080fd5b506101a860048036038101906101a39190610ee2565b6108c0565b005b3480156101b657600080fd5b506101d160048036038101906101cc9190610ee2565b610ca8565b005b60008060008060008060008060008060008b81526020019081526020016000209050600073ffffffffffffffffffffffffffffffffffffffff168160000160009054906101000a900473ffffffffffffffffffffffffffffffffffffffff1673ffffffffffffffffffffffffffffffffffffffff160361028a57896040517f7dc1dad700000000000000000000000000000000000000000000000000000000815260040161028191906110f2565b60405180910390fd5b8060000160009054906101000a900473ffffffffffffffffffffffffffffffffffffffff168160010160009054906101000a900473ffffffffffffffffffffffffffffffffffffffff168260020154836003015484600401548560050160009054906101000a900460ff168660050160019054906101000a900460ff168760050160029054906101000a900460ff169850985098509850985098509850985050919395975091939597565b60008073ffffffffffffffffffffffffffffffffffffffff1660008084815260200190815260200160002060000160009054906101000a900473ffffffffffffffffffffffffffffffffffffffff1673ffffffffffffffffffffffffffffffffffffffff1614159050919050565b7f9b727ad7a6d995527744fb3b7ccd68fd2d4a769c01209e041e1014abd3518113836040516103d2919061116a565b60405180910390a16000340361041f57346040517f3728b83d0000000000000000000000000000000000000000000000000000000081526004016104169190611198565b60405180910390fd5b6000810361046457806040517f4ede0ebc00000000000000000000000000000000000000000000000000000000815260040161045b9190611198565b60405180910390fd5b600073ffffffffffffffffffffffffffffffffffffffff168273ffffffffffffffffffffffffffffffffffffffff16036104d557816040517f085797820000000000000000000000000000000000000000000000000000000081526004016104cc91906110c8565b60405180910390fd5b8173ffffffffffffffffffffffffffffffffffffffff163373ffffffffffffffffffffffffffffffffffffffff160361054557336040517f5a214db400000000000000000000000000000000000000000000000000000000815260040161053c91906110c8565b60405180910390fd5b600073ffffffffffffffffffffffffffffffffffffffff1660008085815260200190815260200160002060000160009054906101000a900473ffffffffffffffffffffffffffffffffffffffff1673ffffffffffffffffffffffffffffffffffffffff16146105eb57826040517f17c697940000000000000000000000000000000000000000000000000000000081526004016105e291906110f2565b60405180910390fd5b6040518061010001604052803373ffffffffffffffffffffffffffffffffffffffff1681526020018373ffffffffffffffffffffffffffffffffffffffff168152602001348152602001828152602001600081526020016000151581526020016000151581526020016000151581525060008085815260200190815260200160002060008201518160000160006101000a81548173ffffffffffffffffffffffffffffffffffffffff021916908373ffffffffffffffffffffffffffffffffffffffff16021790555060208201518160010160006101000a81548173ffffffffffffffffffffffffffffffffffffffff021916908373ffffffffffffffffffffffffffffffffffffffff16021790555060408201518160020155606082015181600301556080820151816004015560a08201518160050160006101000a81548160ff02191690831515021790555060c08201518160050160016101000a81548160ff02191690831515021790555060e08201518160050160026101000a81548160ff0219169083151502179055509050508173ffffffffffffffffffffffffffffffffffffffff163373ffffffffffffffffffffffffffffffffffffffff16847fe1e49425833ccdbedb50b0ee89bdff2544d3d9027e9b977e67c87d5693df4ffd3485426040516107de939291906111b3565b60405180910390a4505050565b600160009054906101000a900473ffffffffffffffffffffffffffffffffffffffff1681565b60006020528060005260406000206000915090508060000160009054906101000a900473ffffffffffffffffffffffffffffffffffffffff16908060010160009054906101000a900473ffffffffffffffffffffffffffffffffffffffff16908060020154908060030154908060040154908060050160009054906101000a900460ff16908060050160019054906101000a900460ff16908060050160029054906101000a900460ff16905088565b80600073ffffffffffffffffffffffffffffffffffffffff1660008083815260200190815260200160002060000160009054906101000a900473ffffffffffffffffffffffffffffffffffffffff1673ffffffffffffffffffffffffffffffffffffffff160361096757806040517f7dc1dad700000000000000000000000000000000000000000000000000000000815260040161095e91906110f2565b60405180910390fd5b7f9b727ad7a6d995527744fb3b7ccd68fd2d4a769c01209e041e1014abd3518113826040516109969190611236565b60405180910390a1600080600084815260200190815260200160002090508060050160009054906101000a900460ff16610a0757826040517f7dc1dad70000000000000000000000000000000000000000000000000000000081526004016109fe91906110f2565b60405180910390fd5b8060050160019054906101000a900460ff1615610a5b57826040517fedc6a98d000000000000000000000000000000000000000000000000000000008152600401610a5291906110f2565b60405180910390fd5b6000816004015442610a6d9190611293565b90508160030154811015610acd574282600301548360040154610a9091906112c7565b6040517f48cd9795000000000000000000000000000000000000000000000000000000008152600401610ac49291906112fb565b60405180910390fd5b60018260050160016101000a81548160ff02191690831515021790555060018260050160026101000a81548160ff02191690831515021790555060008260010160009054906101000a900473ffffffffffffffffffffffffffffffffffffffff1673ffffffffffffffffffffffffffffffffffffffff168360020154604051610b5590611355565b60006040518083038185875af1925050503d8060008114610b92576040519150601f19603f3d011682016040523d82523d6000602084013e610b97565b606091505b5050905080610c07578260010160009054906101000a900473ffffffffffffffffffffffffffffffffffffffff1683600201546040517fa09e6165000000000000000000000000000000000000000000000000000000008152600401610bfe92919061136a565b60405180910390fd5b847feac7c7d4d0b9d64293c8cfe6c32840ddbaead22d661ddddf58c8567f3fbeeb2542604051610c379190611198565b60405180910390a2847f1e170c3b430cc6fdcdaa453c42619ac587e13793aa81a489fab9ebd7019c2efb8460010160009054906101000a900473ffffffffffffffffffffffffffffffffffffffff168560020154604051610c9992919061136a565b60405180910390a25050505050565b80600073ffffffffffffffffffffffffffffffffffffffff1660008083815260200190815260200160002060000160009054906101000a900473ffffffffffffffffffffffffffffffffffffffff1673ffffffffffffffffffffffffffffffffffffffff1603610d4f57806040517f7dc1dad7000000000000000000000000000000000000000000000000000000008152600401610d4691906110f2565b60405180910390fd5b7f9b727ad7a6d995527744fb3b7ccd68fd2d4a769c01209e041e1014abd351811382604051610d7e91906113df565b60405180910390a1600080600084815260200190815260200160002090508060050160009054906101000a900460ff1615610df057826040517ff6761d0a000000000000000000000000000000000000000000000000000000008152600401610de791906110f2565b60405180910390fd5b8060050160019054906101000a900460ff1615610e4457826040517fedc6a98d000000000000000000000000000000000000000000000000000000008152600401610e3b91906110f2565b60405180910390fd5b60018160050160006101000a81548160ff021916908315150217905550428160040181905550827f6a0d065566ea6ef32499e12f069ec4b0858bf21581872e86bf33e29b2375c5c042604051610e9a9190611198565b60405180910390a2505050565b600080fd5b6000819050919050565b610ebf81610eac565b8114610eca57600080fd5b50565b600081359050610edc81610eb6565b92915050565b600060208284031215610ef857610ef7610ea7565b5b6000610f0684828501610ecd565b91505092915050565b600073ffffffffffffffffffffffffffffffffffffffff82169050919050565b6000610f3a82610f0f565b9050919050565b610f4a81610f2f565b82525050565b6000819050919050565b610f6381610f50565b82525050565b60008115159050919050565b610f7e81610f69565b82525050565b600061010082019050610f9a600083018b610f41565b610fa7602083018a610f41565b610fb46040830189610f5a565b610fc16060830188610f5a565b610fce6080830187610f5a565b610fdb60a0830186610f75565b610fe860c0830185610f75565b610ff560e0830184610f75565b9998505050505050505050565b60006020820190506110176000830184610f75565b92915050565b61102681610f2f565b811461103157600080fd5b50565b6000813590506110438161101d565b92915050565b61105281610f50565b811461105d57600080fd5b50565b60008135905061106f81611049565b92915050565b60008060006060848603121561108e5761108d610ea7565b5b600061109c86828701610ecd565b93505060206110ad86828701611034565b92505060406110be86828701611060565b9150509250925092565b60006020820190506110dd6000830184610f41565b92915050565b6110ec81610eac565b82525050565b600060208201905061110760008301846110e3565b92915050565b600082825260208201905092915050565b7f4372656174696e672063616c6c00000000000000000000000000000000000000600082015250565b6000611154600d8361110d565b915061115f8261111e565b602082019050919050565b6000604082019050818103600083015261118381611147565b905061119260208301846110e3565b92915050565b60006020820190506111ad6000830184610f5a565b92915050565b60006060820190506111c86000830186610f5a565b6111d56020830185610f5a565b6111e26040830184610f5a565b949350505050565b7f436f6d706c6574696e672063616c6c0000000000000000000000000000000000600082015250565b6000611220600f8361110d565b915061122b826111ea565b602082019050919050565b6000604082019050818103600083015261124f81611213565b905061125e60208301846110e3565b92915050565b7f4e487b7100000000000000000000000000000000000000000000000000000000600052601160045260246000fd5b600061129e82610f50565b91506112a983610f50565b92508282039050818111156112c1576112c0611264565b5b92915050565b60006112d282610f50565b91506112dd83610f50565b92508282019050808211156112f5576112f4611264565b5b92915050565b60006040820190506113106000830185610f5a565b61131d6020830184610f5a565b9392505050565b600081905092915050565b50565b600061133f600083611324565b915061134a8261132f565b600082019050919050565b600061136082611332565b9150819050919050565b600060408201905061137f6000830185610f41565b61138c6020830184610f5a565b9392505050565b7f5374617274696e672063616c6c00000000000000000000000000000000000000600082015250565b60006113c9600d8361110d565b91506113d482611393565b602082019050919050565b600060408201905081810360008301526113f8816113bc565b905061140760208301846110e3565b9291505056fea2646970667358221220be6f47b0d277f01e5b869737c32a398fc620083845ecbd803282cd00e501e43f64736f6c634300081a0033",
  "linkReferences": {},
  "deployedLinkReferences": {}
}